:020000040800F2
:10000000980B002005010008F3140008C312000833
:10001000F1140008D1010008ED17000800000000ED
:100020000000000000000000000000002D16000885
:10003000D301000800000000F51400082F16000886
:100040001F0100081F0100081F0100081F01000810
:100050001F0100081F0100081F0100081F01000800
:100060001F0100087D020008910200081F0100081E
:100070001F0100081F0100081F0100081F010008E0
:100080001F0100081F0100081F0100081F010008D0
:100090001F0100081F0100081F010008A502000839
:1000A0001F0100081F0100081F0100081F010008B0
:1000B0001F0100081F0100081F0100081F010008A0
:1000C0001F0100081F0100081F0100081F01000890
:1000D0001F0100081F0100081F0100081F01000880
:1000E000190200081F0100081F010008DFF810D0E6
:1000F00000F05CF800480047A51F0008AFF300803F
:10010000980B00200648804706480047FEE7FEE7B8
:10011000FEE7FEE7FEE7FEE7FEE7FEE7FEE7FEE7B7
:10012000CD160008ED00000840EA01039B0703D04C
:1001300009E008C9121F08C0042AFAD203E011F826
:10014000013B00F8013B521EF9D27047D2B201E0E8
:1001500000F8012B491EFBD270470022F6E710B5CC
:1001600013460A4604461946FFF7F0FF204610BD25
:10017000421C10F8011B0029FBD1801A704730B5D2
:100180000B46014600202022012409E021FA02F555
:100190009D4205D303FA02F5491B04FA02F52844EF
:1001A000151EA2F10102F1DC30BD0000064C074D26
:1001B00006E0E06840F0010394E807009847103437
:1001C000AC42F6D3FFF796FF20280008402800082D
:1001D000FEE7704770B5044600680E461546018874
:1001E000406889B2002200F091F920684FF47A73D8
:1001F0002A468068314600F0EAFD2068806800F0F9
:10020000A5FC0128F9D12068012201884068BDE8D9
:10021000704089B200F07AB910B5134C206800051F
:1002200006D5E01400F076F810480168491C01601A
:100230002068C00417D54FF4805000F06BF80C48CC
:100240000C4C01220168491C01608021204600F00D
:100250005DF909490120002208602046BDE81040F0
:10026000802100F053B910BD140401402C0000207F
:1002700028000020000C01403000002010B50820AC
:1002800000F048F801490120086010BD3C00002042
:1002900010B5102000F03EF801490120086010BDA3
:1002A0003800002010B5202000F034F8014901206A
:1002B000086010BD3400002010B5044608A10A48AB
:1002C00001F096FA0848FFF753FF07490844214612
:1002D00001F08EFABDE81040034802F011B90000A9
:1002E0004552524F523A20009400002070B5044607
:1002F00000F012F90546601C02D00448007804445E
:1003000000F00AF9401BA042FAD370BD440000205F
:1003100070470000044910B50A68024202D0086024
:10032000FFF7F6FF10BD0000140401402DE9F84F5F
:10033000DFF8B891002409F1040A0AF1040B2346FE
:100340000F270BF1040EC9E00125A5402A40AA425F
:100350007DD1674ED1F804C0ACEB0608B44532D06D
:1003600014DCBCF1030F3AD009DCBCF1000F2AD039
:10037000BCF1010F1CD0BCF1020F31D11DE0BCF16A
:10038000110F17D0BCF1120F2AD119E0B8F5881F50
:1003900019D006DCB8F5803F15D0B8F5801F1FD105
:1003A00011E0B8F5001F0ED0B8F5041F18D10AE00F
:1003B000CB6815E0CB681B1D12E0CB6808330FE05B
:1003C000CB680C330CE08B682BB1012B4FF008038A
:1003D00003D0456104E0042302E0056100E000234E
:1003E000FF2A01D8064601E000F104064FEA840521
:1003F00001D9A5F12005D6F8008007FA05FC28EA06
:100400000C0803FA05F548EA0508C6F800804D68AF
:10041000ED0062D5374DAE6946F00106AE61AD69BB
:1004200024F0030605F001050095334D06EB050C9D
:10043000DCF80850A607360F07FA06F825EA080583
:10044000DFF8B880404503D14FF0000817E044E0E2
:10045000DFF8AC80404502D14FF001080FE0DFF833
:10046000A480404502D14FF0020808E0DFF89880F0
:10047000404502D14FF0030801E04FF0040808FAAC
:1004800006F848EA0508CCF808804D68D9F80060FD
:10049000ED034D4601D5164300E096432E604D68AE
:1004A000DAF80060AD03554601D5164300E09643E7
:1004B0002E604D68DBF80060ED025D4601D5164305
:1004C00000E096432E604D68DEF80060AD02754690
:1004D00001D5164300E096432E60641C0D682A4641
:1004E000E5407FF431AFBDE8F88F00000004014023
:1004F00000001110001002400000014000080140FF
:10050000000C014000100140001401400AB10161DB
:1005100070470904FBE7000001488068704700004D
:1005200044000020024881680278114481607047CD
:1005300044000020074810B5016841F01001016037
:10054000032000F075F8002000F006F800F024F811
:10055000002010BD0020024070B50D4D04464FF440
:100560007A712878B1FBF0F00A490968B1FBF0F024
:1005700000F0D1FD48B9102C07D200222146501EB0
:1005800000F036F800206C6070BD012070BD0000E6
:1005900044000020500000200C4808B5816941F05B
:1005A00001018161816901F001010091C16941F09E
:1005B0008051C161C06900F08050009004484168DA
:1005C00021F0E06141F00071416008BD001002407F
:1005D00000000140002809DB00F01F0201219140CA
:1005E0004009800000F1E020C0F8001170470000D1
:1005F000F0B40E4B1B680C46C3F30223C3F107058E
:10060000042D00D90425191D072901D2002300E07B
:10061000DB1E012606FA05F1491E214099409E4045
:10062000761E16403143F0BC01F0F6B80CED00E048
:10063000064900F0070208684FF6FF03184040EA39
:100640000220034A10430860704700000CED00E0F0
:100650000000FA052DE9F0470F46050061D0434E32
:10066000306800F00700B84209D2306820F0070077
:1006700038433060306800F00700B84251D1286834
:100680003B4C810712D5400703D5606840F4E06019
:1006900060602878000703D5606840F460506060AF
:1006A0006068A96820F0F000084360602878C007FF
:1006B00028D06868012810D02168022810D0890746
:1006C00000292EDA616821F0030101436160FFF720
:1006D00023FF804641F288390DE021688903EFE766
:1006E0008901EDE7FFF718FFA0EB0801494502D9A2
:1006F0000320BDE8F0876068696800F00C00B0EB8B
:10070000810FEFD1306800F00700B8420BD9306894
:1007100020F0070038433060306800F00700B8422E
:1007200001D00120E5E72878400705D56068E96831
:1007300020F4E060084360602878000706D5606810
:10074000296920F4605040EAC100606000F038F888
:100750006168084AC1F30311515CC840064908604A
:1007600006480068FFF7F8FE0020C2E700200240BC
:1007700000100240C427000850000020480000205C
:100780000448054900684968044AC1F30221515CE4
:10079000C84070475000002000100240D4270008D5
:1007A0000448054900684968044AC1F3C221515C04
:1007B000C84070475000002000100240D4270008B5
:1007C00012A185B00FC98DE80F0014A0144A00686B
:1007D00004905168134801F00C03042B10D0082B2F
:1007E0000ED1C1F38343C9031DF803000AD5516834
:1007F00004AAC1F34041515C0A4A5043B0FBF1F0F6
:1008000005B0704708494843FAE7000002030405B1
:10081000060708090A0B0C0D0E0F1010010200004C
:100820000010024000127A0000093D002DE9F84F47
:10083000040070D02078C04DC00749D06868C0F36C
:100840008100012807D06868C0F38100022809D11F
:100850006868C00306D52868800339D56068002819
:10086000E7D035E06068B0F5803F0BD010B1B0F54F
:10087000A02F11D0286820F480302860286820F448
:10088000802002E0286840F480302860606890B1E1
:10089000FFF742FE06460AE0286840F48020286000
:1008A000F0E700BFFFF738FE801B642873D8286884
:1008B0008003F7D50CE0FFF72FFE064605E000BFEA
:1008C000FFF72AFE801B6428F0D828688003F7D43D
:1008D00020789A4E80074FF001094FF0000839D573
:1008E000686810F00C0F07D06868C0F38100022818
:1008F00009D16868C00306D42868800714D5206928
:10090000012808D110E02069B0B1C6F80090FFF7C7
:1009100003FE074605E00AE1FFF7FEFDC01B0228C3
:10092000C4D828688007F7D52868616920F0F800E6
:1009300040EAC10028600DE0C6F80080FFF7ECFD3A
:10094000074604E0FFF7E8FDC01B022823D828680B
:100950008007F7D4207800072CD57948A169D9B150
:10096000C0F80090FFF7D8FD074604E0FFF7D4FD7C
:10097000C01B02280FD8686A8007F7D571484FF46A
:10098000FA510068B0FBF1F0009000BF0098411EE2
:100990000091FAD20EE080E0C0F80080FFF7BCFDC5
:1009A000074604E0FFF7B8FDC01B022875D8686A47
:1009B0008007F7D42078400760D5E8690027C00099
:1009C00008D4E86940F08050E861E869012700F048
:1009D000805000905C480168C90513D401688346C3
:1009E00041F480710160FFF797FD824606E000BF89
:1009F000FFF792FDA0EB0A0064284ED8DBF8000058
:100A0000C005F5D5E06801280AD008B1052813D043
:100A1000286A20F001002862286A20F0040002E021
:100A2000286A40F001002862E06841F2883B98B1F2
:100A3000FFF772FD82460BE0286A40F0040028624E
:100A4000EEE700BFFFF768FDA0EB0A0159455AD851
:100A5000286A8007F6D50CE0FFF75EFD824605E0C8
:100A6000FFF75AFDA0EB0A0159454CD8286A8007C8
:100A7000F6D41FB1E86920F08050E861E06988B3DE
:100A80006968C1F38101022944D00228C6F8608058
:100A900004D0FFF741FD044638E034E0FFF73CFDA9
:100AA000074604E0FFF738FDC01B02282BD8286852
:100AB0008001F7D4206AB0F5803F05D16868A1684D
:100AC00020F4003008436860D4E9080108436968ED
:100AD00021F4741108436860C6F86090FFF71CFDAC
:100AE000044606E025E000BFFFF716FD001B0228C4
:100AF00009D828688001F7D51BE000BFFFF70CFD7F
:100B0000001B022802D90320BDE8F88F2868800165
:100B1000F4D40EE00128F7D06868226A00F480312E
:100B2000914204D1616A00F47010884201D0012022
:100B3000EAE70020E8E7000000100240000042421F
:100B400080044242500000200070004090F85100A4
:100B5000704770B5040009D0606A002540B1256176
:100B60006561A56294F8510040B10CE0012070BDB0
:100B70006068B0F5827FF4D0E561F2E784F8505008
:100B8000204600F03FF8022084F8510020680168F8
:100B900021F040010160A088218900F4827001F4F5
:100BA00004410843A18901F400610843217C01F05C
:100BB00002010843217D01F001010843218B01F46A
:100BC00000710843217F01F03801084394F8201098
:100BD00001F080010843218D01F400510843216890
:100BE0000860A069042101EA10402168486020687B
:100BF000C16921F40061C1616565012084F851007B
:100C0000002070BD30B585B000240094019402949A
:100C1000039400681449884223D11448816941F43F
:100C200080518161816901F480510491816941F0B1
:100C30000401816180690E4D00F004000490A02041
:100C40000090022001900320039069462846FFF798
:100C50006DFB4020CDE90004694628460294FFF769
:100C600065FB05B030BD00000030014000100240BF
:100C7000000801402DE9F84F0446406800259846D9
:100C800016460F464FF0040BB0F5827F01D1A068E5
:100C900088B194F85000012818D0012084F8500041
:100CA000FFF73AFC814694F851004FF0000A012802
:100CB0000ED0022582E084F851B013460A46204641
:100CC000CDF8008000F036F9BDE8F88F0220FBE790
:100CD000002F72D0002E70D084F851B0C4F854A008
:100CE000A763A687E687C4F830A0A4F834A0A4F8C8
:100CF00036A0C4F840A0C4F844A0A068B0F5004FE6
:100D000009D12068016821F0400101602068016874
:100D100021F48041016020680168490603D401681C
:100D200041F040010160E068D8B139E02068816895
:100D3000C90709D0007BA16B0870A06B401CA063A1
:100D4000E08F401EE0870CE0FFF7E6FBA0EB090117
:100D5000414503D3B8F1FF3F03D036E0B8F1000FAF
:100D600033D0E08F0028E1D11DE020688168C907F9
:100D700009D0C068A16B0880A06B801CA063E08FC5
:100D8000401EE0870CE0FFF7C7FBA0EB09014145DF
:100D900003D3B8F1FF3F03D017E0B8F1000F14D030
:100DA000E08F0028E1D14A464146204600F0A3FBEF
:100DB00008B120206065606D00B10125012084F834
:100DC000510084F850A028467EE70325F6E72DE978
:100DD000F84F044690F8500000271D4616468946F5
:100DE00001280DD04FF0010B84F850B0FFF794FBB1
:100DF000804694F85100BA46012804D0022793E0B7
:100E00000220BDE8F88FB9F1000F73D0002E71D029
:100E1000032084F85100C4F854A0C4F83090A6868A
:100E2000E686C4F838A0A4F83CA0A4F83EA0C4F814
:100E300044A0C4F840A0A068B0F5004F09D12068D4
:100E4000016821F0400101602068016841F480419F
:100E5000016020680168490603D4016841F040013F
:100E60000160E068B0F5006F606803D030B3012E18
:100E700024D041E008B1012E1CD1206B21680088EC
:100E8000C86006E020688168890709D5216B098858
:100E9000C160206B801C2063E08E401EE08609E06C
:100EA000FFF73AFBA0EB0800A84202D3681C01D070
:100EB00031E07DB3E08E0028E4D120E0206B216892
:100EC0000078087306E020688168890709D5216BDE
:100ED00009780173206B401C2063E08E401EE08681
:100EE0000AE0FFF719FBA0EB0800A84203D3681C37
:100EF00002D010E017E06DB1E08E0028E3D1424649
:100F00002946204600F025FB08B120206065A06836
:100F100018B106E0FFE7032706E02068C168806893
:100F20000090606D00B1012784F851B084F850A0A2
:100F3000384666E72DE9F84F044690F85000002740
:100F40000A9E1D4692468B464FF0010901280ED09D
:100F5000012084F85000FFF7DFFA804694F8510032
:100F6000616801280CD0B1F5827F07D102E0022030
:100F7000BDE8F88FA16809B9042801D00227C2E0B2
:100F8000BBF1000F27D0BAF1000F24D01DB394F8A5
:100F90005100042802D0052084F85100002060652B
:100FA000C4F838A0E587A587C4F830B0E586A586E3
:100FB0002064606420680168490603D4016841F038
:100FC00040010160E068B0F5006F606805D0E8B3EB
:100FD000012D46D07FE0012795E008B1012D39D1E0
:100FE000206B21680088C860206B801C2063E08E25
:100FF000401EE0862EE02068816889070FD5E18ECB
:1010000069B1B9F1010F0AD1216B0988C160206B68
:10101000801C2063E08E401EE0864FF000092068AF
:101020008168C9070CD0E18F51B1C068A16B0880FD
:10103000A06B801CA063E08F401EE0874FF0010989
:10104000FFF76AFAA0EB0800B04200E009E001D324
:10105000701C50D1E08E0028CDD1E08F0028CAD17D
:101060003FE0206B216800780873206B401C2063F0
:10107000E08E401EE0862EE02068816889070FD54B
:10108000E18E69B1B9F1010F0AD1216B09780173C1
:10109000206B401C2063E08E401EE0864FF000096C
:1010A00020688168C9070CD0E18F51B1C068A16B7D
:1010B0000870A06B401CA063E08F401EE0874FF0DB
:1010C0000109FFF729FAA0EB0800B04202D3701C17
:1010D00001D010E07EB1E08E0028CDD1E08F002855
:1010E000CAD142463146204600F033FA28B10127E2
:1010F0002020606507E0032705E0A06818B9206894
:10110000C16880680090012084F85100002084F8B4
:10111000500038462CE710B5401EB0F1807F01D357
:10112000012010BD4FF0E02460610F21601700F036
:1011300073FB0020A06107202061002010BD70B566
:10114000040004D094F83900002510B106E0012015
:1011500070BD84F83850204600F022F8242084F82E
:1011600039002068C16821F40051C160204600F0B8
:10117000AFFA2068016921F490410161206841695A
:1011800021F02A0141612068C16841F40051C16029
:10119000E563202084F8390084F83A00002070BD0F
:1011A00030B585B000240094019402940394006843
:1011B0001449884224D11448816941F480418161F5
:1011C000816901F480410491816941F004018161E8
:1011D00080690E4D00F0040004904FF40070009000
:1011E000022001900320039069462846FFF79EF8ED
:1011F0002815CDE90004694628460294FFF796F8C1
:1012000005B030BD00380140001002400008014028
:101210002DE9F843044690F839001F4616460D465E
:1012200020284CD1C5B1BEB194F83800012846D071
:10123000012084F838004FF00008C4F83C802120D9
:1012400084F83900FFF768F9A6848146E684A0682F
:10125000B0F5805F03D004E00120BDE8F883206989
:1012600028B12E465FF0000584F838800EE0002695
:10127000FAE78021204600F087FAA0B9AEB116F84F
:10128000010B21684860E08C401EE084E08C4B46F6
:101290004FF0000200970028EBD14FF040012046AC
:1012A00000F072FA30B10320D7E735F8020BC0F333
:1012B0000800E6E7202084F839000020CDE702206E
:1012C000CBE7FEE72DE9F04385B0002452480094B7
:1012D000019402940394816941F010018161816954
:1012E00001F010010491816941F02001816181695F
:1012F00001F020010491816941F00401816181695B
:1013000001F004010491816941F008018161806963
:10131000DFF8089100F008000490002202214846FE
:10132000FFF7F4F80125022603960095DFF8F08018
:10133000CDE9015469464046FEF7F8FF08270097BB
:101340000396CDE9015469464846FEF7EFFF2802AF
:10135000CDE90005CDE9024669464046FEF7E6FFC5
:101360008020CDE90005CDE9024669464046FEF7FA
:10137000DDFF6802CDE90005CDE902466946404639
:10138000FEF7D4FF4020CDE90005CDE902466946CD
:101390004046FEF7CBFFCDE90065CDE90246694640
:1013A0004846FEF7C3FF1F4D2020CDE900056946E2
:1013B00002944046FEF7BAFF1020CDE900056946C9
:1013C00002944046FEF7B2FF0097CDE9015469460A
:1013D0004046FEF7ABFF002211460920FFF708F94F
:1013E0000920FFF7F7F8002211460A20FFF700F95D
:1013F0000A20FFF7EFF8002211461720FFF7F8F850
:101400001720FFF7E7F8012208214846FFF77EF88A
:1014100005B0BDE8F0830000001002400008014064
:10142000000C014000001110104810B50E49016079
:101430004FF48271416000218160C1604FF40072FD
:101440000161C0E905122822C0E9072141628162D9
:101450000A21C162FFF77DFB002804D0BDE81040DF
:1014600003A0FEF729BF10BD003001403007002067
:1014700048414C5F5350495F496E69742826687330
:101480007069312920213D2048414C5F4F4B0000BD
:101490000D4810B50B4901604FF416514160002111
:1014A00081600C22C160C0E904128161C161FFF753
:1014B00046FE002804D0BDE8104004A0FEF7FCBEA4
:1014C00010BD0000003801405400002048414C5F2E
:1014D000554152545F496E6974282668756172746B
:1014E000312920213D2048414C5F4F4B0000000036
:1014F000FEE770477047F8B5044640684FF48273C2
:10150000984217D1A0684FF48065B0F5004F01D024
:10151000A8420FD12068066826F040060660606881
:10152000984207D1A068A84204D100920B4600223D
:10153000012103E000920B4600228021204600F0AA
:1015400019F8002804D0606D40F020006065032089
:10155000F8BD38B50B46009204460022802100F009
:1015600009F8002804D0606D40F020006065032079
:1015700038BD00002DE9F8431E46914688460446D2
:10158000089DFEF7C9FF401B351AFEF7C5FF074649
:1015900025480068C0F3CB30684338E0701C37D072
:1015A000FEF7BAFFC01BA84203D215B1009860B382
:1015B0002CE02068416821F0E00141606068B0F5EE
:1015C000827F0BD1A068B0F5004F02D0B0F5806FDC
:1015D00004D12068016821F040010160A06AB0F5E3
:1015E000005F09D12068016821F400510160206882
:1015F000016841F400510160012084F8510000208D
:1016000084F850000320BDE8F8830025401E0090B8
:101610002068816838EA010004D000214945BDD125
:101620000020F0E70121F9E7500000207047FEF7A5
:1016300079BF000030B58FB028216846FEF78DFDD8
:1016400014210AA8FEF789FD01210804CDE9001044
:101650000024029402250491CDE907504FF4E010D4
:1016600009906846FFF7E2F810B10BA0FEF724FEE0
:101670000F20CDE90A054FF48060CDE90C4002212E
:101680000AA80E94FEF7E6FF002802D00E48FEF7E7
:1016900013FE0FB030BD000048414C5F5243435F22
:1016A0004F7363436F6E66696728265243435F4FEB
:1016B0007363496E69745374727563742920213D94
:1016C0002048414C5F4F4B00DC270008704700006A
:1016D00070B5044600680169E26821F44051114385
:1016E00001612169A0680843616908432168CA68EB
:1016F00041F20C639A430243CA6020684169A269BF
:1017000021F44071114341611E492068884202D191
:10171000FFF746F801E0FFF733F800EBC00101EBFB
:101720000012606864218000B2FBF0F3B3FBF1F3B8
:101730006FF018067343B2FBF0F5B2FBF0F605EB61
:101740008305322303EB0515B5FBF1F5B6FBF1F686
:1017500005F0F00505EB0615B2FBF0F6B2FBF0F074
:10176000B0FBF1F06FF01802504306EB800003EB82
:101770000010B0FBF1F0216800F00F0028448860F1
:1017800070BD0000003801402DE9F0419846174631
:101790000E460446069D1DE0681C1BD02DB1FEF7C9
:1017A000BBFEA0EB0800A84214D92068C16821F450
:1017B000D071C1602068416921F0010141612020A0
:1017C00084F8390084F83A00002084F838000320B7
:1017D000BDE8F0812068006836EA000004D00020EF
:1017E000B842D9D00020F3E70120F9E7FEE7000076
:1017F0000FB4084B10B504A902AA039800F02CF806
:10180000044602A9002000F0D1F8204610BC5DF883
:1018100014FB0000AD1900080907090E002804DBBD
:1018200000F1E02080F80014704700F00F0000F194
:10183000E02080F8141D704702E008C8121F08C19C
:10184000002AFAD170477047002001E001C1121F41
:10185000002AFBD1704700002DE9FF4F89B09B465D
:101860000446002506E025280BD05A460B999047E0
:10187000641C6D1C20780028F5D10DB02846BDE809
:10188000F08F0027B8460122474900E0074314F8CB
:10189000013F203B02FA03F00842F7D120782E28BE
:1018A00019D114F8010F47F004072A280ED06FF061
:1018B0002F022078A0F1300109290CD808EB88010B
:1018C00002EB410100EB0108641CF2E70A98641C7A
:1018D00050F8048B0A9020780028CED0642808D0D5
:1018E000692806D075281ED05A460B9990476D1C62
:1018F00058E00A994FF00A0901C90A91002802DA52
:1019000040422D2102E0390504D52B218DF820100D
:10191000012103E0F90704D02021F7E78A4608AE49
:101920000DE00021FAE70A994FF00A0901C90A916E
:10193000F7E74946FEF723FC303106F8011D002881
:10194000F7D1ADEB060000F12009780701D44FF084
:101950000108C84502DDA8EB090000E00020804630
:10196000002706E008A85A46C05D0B9990476D1CF9
:101970007F1C5745F6DB04E030205A460B99904710
:101980006D1CB8F10001A8F10108F5DC05E016F8BE
:10199000010B5A460B9990476D1CB9F10001A9F152
:1019A0000109F4DC641C65E7092801000A68531C7E
:1019B0000B601070704710B50022CCB2835CA3425C
:1019C00001D0002010BD0912521C022AF5DB0120B3
:1019D00010BD000070B50122052100F09DF91F4CDB
:1019E00002464FF47A75A06882420FDA1CA124489F
:1019F000FFF7FEFE2248FEF7BBFB214982B22B46D1
:101A0000A1F14000FFF704FC022070BD904222D0FB
:101A10001CA11B48FFF7ECFE1948FEF7A9FB18496B
:101A200082B22B46A1F14000FFF7F2FB19A1144846
:101A3000A268FFF7DDFE1248FEF79AFB104982B25A
:101A40002B46A1F14000FFF7E3FB19A0FEF734FCA1
:101A50000020A06070BD012070BD000000000020CB
:101A60005061636B657420256420616C72656164EC
:101A7000792072656365697665640D0A000000006F
:101A8000940000205061636B65742069643A2025DE
:101A9000640D0A0072785F657870656374656450E0
:101AA00061636B657449643A2025640D0A00000087
:101AB0005061636B6574207769746820756E657812
:101AC000706563746564207061636B65742069641C
:101AD0002077617320726563656976656400000034
:101AE00038B50446422100F0D3F9122801D0012074
:101AF00038BD80220121204600F020FA3E4D2046CC
:101B0000294600F04DFD00220E21204600F016FA75
:101B100000220F21204600F011FA0C21204600F08F
:101B2000B7F940F003020C21204600F007FA042226
:101B30002621204600F002FA8F220921204600F0DB
:101B4000FDF981220121204600F0F8F9002201214F
:101B5000204600F0F3F90520FEF7C8FB09224B21CF
:101B6000204600F0EBF980220121204600F0E6F942
:101B70002946204600F014FD0F21204600F017FEF4
:101B80000B221146204600F0D9F923220C212046D1
:101B900000F0D4F9194800214170204600F060FDA2
:101BA00004200090902302226021204600F082FD54
:101BB00000222621204600F0C1F940F2FF312046E4
:101BC00000F0DAFD0C21204600F062FD87224D2155
:101BD000204600F0B3F900222421204600F0AEF99F
:101BE00000224121204600F0A9F901221146204699
:101BF00000F0A4F9002038BD2042C433400000208A
:101C000070B50D4606460122072100F085F8194CF3
:101C1000083D083688B101281DD002280CD116A035
:101C200000F06EFC1A4861692A4608443146FEF706
:101C30007BFA60692844606170BD16A000F060FC0A
:101C40001A48E1682A4608443146FEF76DFAE06812
:101C50002844E06070BD16A000F052FC1A482169CB
:101C60002A4608443146FEF75FFA2069284420617D
:101C700070BD000000000020636F7079696E6720FE
:101C80007A206178697320746F206D656D000000A3
:101C900014050020636F7079696E67207820617881
:101CA000697320746F206D656D00000014010020C1
:101CB000636F7079696E6720792061786973207429
:101CC0006F206D656D000000140300202DE9F041C8
:101CD0001F46DDE9065614460B46804602220021C7
:101CE00000F0B6FC022223461146404600F0B0FC4C
:101CF0003B4601220621404600F0AAFC2B46012269
:101D00000421404600F0A4FC33464046BDE8F041C3
:101D10000122052100F09CBC30B50446002003469A
:101D200004E0CD185B1C655D05EB00209342F8DBF9
:101D300030BD000010B5132100F0AAF8024909785F
:101D4000401AC0B210BD00004000002010B504468B
:101D5000012100F09DF8C043800715D081220121A8
:101D6000204600F0EBF872221D21204600F0E6F834
:101D700000220D21204600F0E1F800222221204619
:101D800000F0DCF8002010BD012010BD70B5054644
:101D900064248322012100F0D1F803E0641E14F0D2
:101DA000FF040CD01221284600F072F80007F5D588
:101DB00008221221284600F0C1F8002070BD012041
:101DC000FEF794FA012070BD10B5044600F082FBC6
:101DD0002046FFF785FE012010BD000070B50646C5
:101DE0000025122100F054F8044672221D213046CD
:101DF00000F0A4F822461221304600F09FF8600659
:101E000018D5A00616D41321304600F041F8054637
:101E10001021304600F03CF802460D21304600F01B
:101E20008DF881220121304600F088F80D4900200C
:101E3000087014E00121304600F02AF8862809D005
:101E400000220D21304600F079F88622012130462B
:101E500000F074F8A00602D54FF0FF3070BD2846A0
:101E600070BD00004000002010B50446FFF762FF7F
:101E7000002809D0054920460A78521C0A70BDE89E
:101E80001040002100F004B810BD00004000002008
:101E90007CB5044601F07F008DF8040000208DF829
:101EA000000020680022018A406989B2FEF72EFBFB
:101EB00020684FF47A752B468069012201A9FEF74C
:101EC00086FF20688069FEF741FE0128F9D120686D
:101ED0002B46012280696946FEF7CCFE20688069A6
:101EE000FEF734FE0128F9D120680122018A4069F9
:101EF00089B2FEF70BFB9DF800007CBD2DE9F04197
:101F00000F46144680462221FFF7C2FF06462044B2
:101F1000FF2801DDC6F1FF04002505E07A5D002100
:101F2000404600F00BF86D1CA542F7DB3019C2B239
:101F30004046BDE8F0412221AFF3008037B582B0C2
:101F4000044641F080008DF8000020680022018ADC
:101F5000406989B2FEF7DAFA20684FF47A752B46A9
:101F6000806901226946FEF732FF20688069FEF72A
:101F7000EDFD0128F9D120682B460122806904A9D2
:101F8000FEF725FF20688069FEF7E0FD0128F9D102
:101F900020680122018A406989B2FEF7B7FA05B0CC
:101FA00030BD00008EB0FEF7C5FAFFF743FBFFF728
:101FB00089F9FFF739FAFFF76BFAEAA000F0A0FA07
:101FC0004FF0000A022004240126CDE902A0EA4DC8
:101FD000CDE9004669462846FEF7A8F9012204210A
:101FE0002846FEF793FAE548E549A0F15802046057
:101FF000C0E901520860A0F1740108208A61C1E9BA
:102000000405E04CDE48C1E90064001D0160DEA06B
:1020100000F076FAA7154FF47A79661533E0E0A060
:1020200000F06EFA4846FEF761F901223946204673
:10203000FEF76CFA012280212046FEF767FA0122A2
:1020400031462046FEF762FA012240212046FEF783
:102050005DFA6420FEF74AF9002239462046FEF771
:1020600055FA002280212046FEF750FA0022314620
:102070002046FEF74BFA002240212046FEF746FAA2
:102080006420FEF733F9BE48001DFFF79DFE0028CF
:10209000C5D001220221B848FEF738FAC3A000F0EB
:1020A0002FFAC6A000F02CFA01223D463946204600
:1020B000FEF72CFA012280212046FEF727FAB346CC
:1020C000012259462046FEF721FA012240212046EE
:1020D000FEF71CFA4F464846FEF708F9002229464B
:1020E0002046FEF713FA002280212046FEF70EFA62
:1020F000002231462046FEF709FA00224021204600
:10210000FEF704FAB5A000F0FBF9384620E10026FE
:10211000324602219848FEF7F9F901222946204665
:10212000FEF7F4F901200027E8460D900FE09448EF
:10213000001DFFF799FE08F80600761CB6B2022EC5
:1021400005D100216846FFF736FC070005D08C4812
:10215000001DFFF7EFFD0028E9D1002229462046A7
:10216000FEF7D4F9002F18D0012206216846FFF7A8
:10217000D3FD0746012204216846FFF7CDFD0C90F0
:10218000012205216846FFF7C7FD804637B1042FBD
:1021900017D0022F17D0012F1DD0D8E06846FFF7C7
:1021A00019FC012802D0022809D0D0E03146684647
:1021B000FFF726FD72481C388168491C81608DA09C
:1021C00002E091A000E095A000F09AF941460C9839
:1021D00000F0B6F9BBE06A4E92A01C3EC6F808A01B
:1021E00000F08EF90027DFF8508213E0924838F9AA
:1021F000172092A18038FFF7FBFA8F488038FDF74F
:10220000B7FF8D4982B280394B46A1F14000FEF7FD
:10221000FFFF7F1CF068B7EB500FE7D355A000F02D
:102220006FF988A000F06CF90027DFF82C8213E02A
:10223000814838F9172081A18038FFF7D9FA7E4804
:102240008038FDF795FF7C4982B280394B46A1F179
:102250004000FEF7DDFF7F1C3069B7EB500FE7D37E
:1022600044A000F04DF97DA000F04AF90027DFF806
:10227000008213E0704838F9172070A18038FFF70A
:10228000B7FA6D488038FDF773FF6B4982B2803929
:102290004B46A1F14000FEF7BBFF7F1C7069B7EB16
:1022A000500FE7D333A000F02BF9C6F80CA0C6F806
:1022B00010A0C6F814A00D98002848D02E4F012277
:1022C00002213846FEF722F940F6B830FEF70EF844
:1022D0005948328867A18038FFF78AFA5648803813
:1022E000FDF746FF544982B280394B46A1F14000C8
:1022F000FEF78EFF65A000F003F95E465A464E4990
:102300001F48FDF767FF4FF4FA684046FDF7EEFF00
:1023100064A000F0F5F832464F491948FDF75AFF1E
:102320004046FDF7E3FF65A000F0EAF83246504969
:102330001348FDF74FFF47F23050FDF7D7FF00225B
:1023400002213846FEF7E2F80120FDF7CFFF012019
:10235000FDF7CCFF0A48001DFFF740FD0028F6D02E
:10236000D5E600005541525420696E697469616C6C
:10237000697A6564000000000008014088070020B9
:102380001C000020000C0140436F6E666967757287
:10239000696E67204C6F5261206D6F64756C6500CB
:1023A0004C6F5261204661696C656400455350333F
:1023B0003220656E61626C6564000000446F6E657A
:1023C00020636F6E6669677572696E67204C6F5225
:1023D00061206D6F64756C65000000005761697461
:1023E000696E6720666F722031207365636F6E645B
:1023F000000000007061636B657420737563636532
:10240000737366756C0000004E6577207465737495
:102410002073657373696F6E0000000054502031A3
:10242000000000007265636569766564207820614C
:102430007869733A000000001401002025642C2004
:10244000000000007265636569766564207920612B
:102450007869733A00000000140300207265636518
:1024600069766564207A20617869733A000000001B
:102470001405002053656E64696E6720746F2065D3
:10248000737033322025640D0A00000053656E64BA
:10249000696E672078206178697320746F20657396
:1024A000703A000053656E64696E67207920617828
:1024B000697320746F206573703A000053656E6411
:1024C000696E67207A206178697320746F20657364
:1024D000703A000010B5094C002201212046FEF799
:1024E00015F80A20FDF702FF012211462046FEF7EB
:1024F0000DF8BDE810401420FDF7F8BE000C0140B7
:1025000010B5044601460C48FFF772F92046FDF766
:102510002FFE0949084409A1FFF76AF90648FDF7AB
:1025200027FE054982B2BDE810404FF47A73A1F14D
:102530004000FEF76DBE0000940000200D0A000070
:1025400010B58EB00323CDE900010022012102A8BD
:10255000FFF7BCFB084C012240212046FDF7D6FFC7
:102560002D2102A800F00AF8002240212046FDF7A4
:10257000CDFF0EB010BD0000000C014070B5044648
:102580000D460648FFF7E2FBEAB221460348FFF793
:10259000B5FCBDE870400148FFF7F8BB2000002003
:1025A0002DE9F041804628482022B1FBF0F3DB04FE
:1025B000B3FBF2F2B1FBF0F300FB13134FF47A70AC
:1025C000B3FBF0F34501DB04B3FBF5F31A44B1FBB5
:1025D000F0F300FB13101D49C004B0FBF1F01044F0
:1025E000C0F30742C0F3072762F30704C6B267F3DC
:1025F0000F24154666F3174406214046FFF79EFC5C
:102600003A4607214046FFF799FC324608214046EA
:10261000FFF794FC06214046FFF73AFCA8420FD191
:1026200007214046FFF734FCC4F30721884207D155
:1026300008214046FFF72CFCC4F30741884200D034
:102640000020BDE8F081000040420F000048E80192
:102650000A4402E043541B12491C8A42FADC7047C8
:1026600070B5054609480C464178012901D900207A
:1026700070BD44701D212846FFF70AFC00F0FE02E1
:1026800022431D212846FFF759FC70BD4000002061
:1026900070B50C460546062901D2002070BD220AFD
:1026A0002021FFF74BFCE2B221212846FFF746FC30
:1026B00070BD00002DE9F0478146089E1C460807C2
:1026C00013D112F0F10F10D10420B0EB520F0CD344
:1026D00020070AD10C20B0EB141F06D30620B0EB64
:1026E000141F02D816F0FB0F02D00020BDE8F087BF
:1026F000DFF8808041EA0205602C16D01E21484692
:10270000FFF7C6FB00F0030798F801001D2145EA1A
:1027100000024846FFF712FC44EA06023A431E2133
:102720004846FFF70BFC0120E0E7012188F8011083
:1027300045F001021D214846FFF700FC1E214846D6
:10274000FFF7A6FB00F0030046F0600202431E21E3
:102750004846FFF7F3FB31214846FFF799FB00F0AD
:10276000F80040F0050231214846FFF7E7FB0C2254
:102770003721D5E74000002070B50C00054602D097
:10278000B4F5806F01D3002070BD1E21FFF780FBE0
:1027900000F0FC02C4F3012002431E212846FFF78B
:1027A000CDFBE2B21F212846FFF7C8FB70BD10B574
:1027B0000F2901D9002010BD41F0F0020921FFF7D7
:1027C000BDFB10BD0000000000000000010203047A
:1027D00006070809000000000102030448414C5F9D
:1027E0005243435F436C6F636B436F6E6669672848
:1027F000265243435F436C6B496E69745374727520
:1028000063742C20464C4153485F4C4154454E4321
:10281000595F322920213D2048414C5F4F4B000039
:10282000402800080000002054000000381800086C
:102830009428000854000020440B000048180008A9
:102840000000000000000000000000000000000088
:102850000000000000000000000000000000000078
:102860000000000000000000000000000000000068
:102870000000000000000000000000000000000058
:102880000000000001000000100000000000000037
:042890000024F4002C
:04000005080000ED02
:00000001FF
