:020000040800F2
:10000000D80D002005010008BB1200087B10000875
:10001000B91200089D0400087D14000800000000CB
:10002000000000000000000000000000BF120008F7
:100030009F04000800000000BD120008C112000863
:100040001F0100081F0100081F0100081F01000810
:100050001F0100081F0100081F0100081F01000800
:100060001F010008B5040008CD0400081F010008A6
:100070001F0100081F0100081F0100081F010008E0
:100080001F0100081F0100081F0100081F010008D0
:100090001F0100081F0100081F010008E5040008F7
:1000A0001F0100081F0100081F0100081F010008B0
:1000B0001F0100081F0100081F0100081F010008A0
:1000C0001F0100081F0100081F0100081F01000890
:1000D0001F0100081F0100081F0100081F01000880
:1000E000A10400081F0100081F010008DFF810D05C
:1000F00000F04AF80048004781160008AFF300807E
:10010000D80D00200648804706480047FEE7FEE776
:10011000FEE7FEE7FEE7FEE7FEE7FEE7FEE7FEE7B7
:100120005D130008ED000008D2B201E000F8012BD9
:10013000491EFBD270470022F6E710B513460A4667
:1001400004461946FFF7F0FF204610BD421C10F888
:10015000011B0029FBD1801A704730B50B460146C0
:1001600000202022012409E021FA02F59D4205D356
:1001700003FA02F5491B04FA02F52844151EA2F100
:100180000102F1DC30BD0000064C074D06E0E068DE
:1001900040F0010394E8070098471034AC42F6D3CE
:1001A000FFF7A8FF741900089419000870B51D48DE
:1001B00086B0816941F004018161816901F0040127
:1001C0000491816941F0080181618069012400F096
:1001D000080004904FF40050CDE90004124E0225AF
:1001E00069460395304600F0C3F90021A003CDE92C
:1001F000000102916946304600F0BAF9E003CDE90A
:10020000000469460395304600F0B2F91020CDE9AC
:10021000000469460395054800F0AAF906B00020DD
:1002200070BD000000100240000C014000080140B9
:100230002DE9F0410824174F05464FF40048A60267
:10024000280601D5012200E000224146384600F090
:100250008CFA00223146384600F087FA00BF00BF12
:10026000022000BF401C3228FBDB01223146384609
:1002700000F07BFA00BF00BF022000BF401C322804
:10028000FBDB6806050E641E14F0FF04D8D1BDE840
:10029000F0810000000C0140014890F90100704716
:1002A0002000002010B5FFF781FF00F01DF809487D
:1002B000074A0649C0E90012084A0749C0E9021284
:1002C000084A0749C0E9041210BD00009F27F96CD5
:1002D00078D56E3F980900200E7F8FF27ACD6E3F61
:1002E000200FD8309E9C6C3F10B500212D2000F0CF
:1002F000BBF810212D2000F0B7F80821BDE8104010
:100300002D2000F0B1B8000038B50025009500F0B0
:1003100031FA194C216A401AB0F57A7F24D96A461D
:100320000121002000F04AF89DF800100120E52985
:1003300003D02570217811B112E02070FAE72179FD
:10034000491C11F0FF0121710BD0E06100206070A9
:10035000FFF7A8FFFFF7C8FF2078012806D000E0CC
:10036000257100F007FA2062E06938BD0220E061E3
:1003700001206070F4E700002000002070B51446F2
:100380000D4606460C4A0621322000F017F80A4BAB
:1003900093F90000597840EA0120308093F9020077
:1003A000D97840EA0120288093F90400597940EA7D
:1003B0000120208070BD000044000020AFF30080C9
:1003C0002DE9F05FC0B29246884640F080040129D2
:1003D00001DD44F04004DFF888B0002210215846C7
:1003E00000F0C3F92046FFF723FF00264FF4005921
:1003F0001C4F2BE00825002400224946384600F017
:10040000B4F900BF00BF022000BF401C3228FBDB54
:1004100001224946384600F0A8F900BF00BF02207B
:1004200000BF401C3228FBDB6006040E4FF4804105
:10043000384600F08DF9012801D144F001046D1E09
:1004400015F0FF05D8D10AF80640761C4645D1DBE9
:100450005846BDE8F05F0122102100F086B9000087
:1004600000080140000C0140AFF3008070B50A4E57
:100470000C46054600221021304600F076F9E8B21D
:10048000FFF7D6FEE0B2FFF7D3FE3046BDE870407E
:100490000122102100F069B900080140FEE7704711
:1004A00010B5002000F058F8BDE81040012000F021
:1004B00053B8000010B58021034800F04EF9BDE8A4
:1004C0001040082000F048B8000C014010B5802111
:1004D000034800F042F9BDE81040102000F03CB89D
:1004E000000C014010B58021034800F036F9BDE84A
:1004F0001040202000F030B8000C014010B5044638
:1005000008A10A4800F0BCFF0848FFF71FFE074992
:100510000844214600F0B4FFBDE81040034801F054
:10052000DBB900004552524F523A2000C000002073
:1005300070B5044600F01EF90546601C02D0044860
:100540000078044400F016F9401BA042FAD370BDB5
:100550007000002070470000044910B50A6802428C
:1005600002D00860FFF7F6FF10BD00001404014040
:100570002DE9F84FDFF8B891002409F1040A0AF1D7
:10058000040B23460F270BF1040EC9E00125A540FB
:100590002A40AA427DD1674ED1F804C0ACEB0608D0
:1005A000B44532D014DCBCF1030F3AD009DCBCF105
:1005B000000F2AD0BCF1010F1CD0BCF1020F31D1C9
:1005C0001DE0BCF1110F17D0BCF1120F2AD119E0B8
:1005D000B8F5881F19D006DCB8F5803F15D0B8F5FE
:1005E000801F1FD111E0B8F5001F0ED0B8F5041F11
:1005F00018D10AE0CB6815E0CB681B1D12E0CB6870
:1006000008330FE0CB680C330CE08B682BB1012B67
:100610004FF0080303D0456104E0042302E00561C4
:1006200000E00023FF2A01D8064601E000F104069D
:100630004FEA840501D9A5F12005D6F8008007FA14
:1006400005FC28EA0C0803FA05F548EA0508C6F88F
:1006500000804D68ED0062D5374DAE6946F0010669
:10066000AE61AD6924F0030605F001050095334D38
:1006700006EB050CDCF80850A607360F07FA06F85B
:1006800025EA0805DFF8B880404503D14FF000089F
:1006900017E044E0DFF8AC80404502D14FF001089C
:1006A0000FE0DFF8A480404502D14FF0020808E0D7
:1006B000DFF89880404502D14FF0030801E04FF089
:1006C000040808FA06F848EA0508CCF808804D68DE
:1006D000D9F80060ED034D4601D5164300E096437E
:1006E0002E604D68DAF80060AD03554601D516431B
:1006F00000E096432E604D68DBF80060ED025D4639
:1007000001D5164300E096432E604D68DEF8006088
:10071000AD02754601D5164300E096432E60641C79
:100720000D682A46E5407FF431AFBDE8F88F000040
:1007300000040140000011100010024000000140C0
:1007400000080140000C014000100140001401406D
:100750008068084000D001207047C26821EA020387
:100760000A4043EA0241016170470AB101617047E2
:100770000904FBE701488068704700007000002012
:10078000024881680278114481607047700000203F
:10079000074810B5016841F010010160032000F026
:1007A00075F8002000F006F800F024F8002010BDD5
:1007B0000020024070B50D4D04464FF47A71287840
:1007C000B1FBF0F00A490968B1FBF0F000F07EFBE4
:1007D00048B9102C07D200222146501E00F036F8EE
:1007E00000206C6070BD012070BD00007000002012
:1007F0007C0000200C4808B5816941F0010181614D
:10080000816901F001010091C16941F08051C1612C
:10081000C06900F0805000900448416821F0E06118
:1008200041F00071416008BD00100240000001402D
:10083000002809DB00F01F020121914040098000DF
:1008400000F1E020C0F8001170470000F0B40E4B3A
:100850001B680C46C3F30223C3F10705042D00D91E
:100860000425191D072901D2002300E0DB1E012603
:1008700006FA05F1491E214099409E40761E164019
:100880003143F0BC00F010BE0CED00E0064900F072
:10089000070208684FF6FF03184040EA0220034AA7
:1008A00010430860704700000CED00E00000FA05FE
:1008B0002DE9F0470F46050061D0434E306800F047
:1008C0000700B84209D2306820F007003843306092
:1008D000306800F00700B84251D128683B4C8107CE
:1008E00012D5400703D5606840F4E0606060287866
:1008F000000703D5606840F4605060606068A968D4
:1009000020F0F000084360602878C00728D06868AD
:10091000012810D02168022810D0890700292EDA7A
:10092000616821F0030101436160FFF723FF804606
:1009300041F288390DE021688903EFE78901EDE78D
:10094000FFF718FFA0EB0801494502D90320BDE8D5
:10095000F0876068696800F00C00B0EB810FEFD1A0
:10096000306800F00700B8420BD9306820F007006B
:1009700038433060306800F00700B84201D00120F1
:10098000E5E72878400705D56068E96820F4E0606D
:10099000084360602878000706D56068296920F45C
:1009A000605040EAC100606000F038F86168084AB1
:1009B000C1F30311515CC84006490860064800684D
:1009C000FFF7F8FE0020C2E70020024000100240BE
:1009D000181900087C000020740000200448054914
:1009E00000684968044AC1F30221515CC84070475D
:1009F0007C00002000100240281900080448054926
:100A000000684968044AC1F3C221515CC84070477C
:100A10007C000020001002402819000812A185B0B7
:100A20000FC98DE80F0014A0144A006804905168A3
:100A3000134801F00C03042B10D0082B0ED1C1F386
:100A40008343C9031DF803000AD5516804AAC1F302
:100A50004041515C0A4A5043B0FBF1F005B0704789
:100A600008494843FAE7000002030405060708099D
:100A70000A0B0C0D0E0F10100102000000100240B6
:100A800000127A0000093D002DE9F84F040070D0F3
:100A90002078C04DC00749D06868C0F381000128A4
:100AA00007D06868C0F38100022809D16868C003D4
:100AB00006D52868800339D560680028E7D035E07E
:100AC0006068B0F5803F0BD010B1B0F5A02F11D009
:100AD000286820F480302860286820F4802002E014
:100AE000286840F480302860606890B1FFF742FECB
:100AF00006460AE0286840F480202860F0E700BF3E
:100B0000FFF738FE801B642873D828688003F7D568
:100B10000CE0FFF72FFE064605E000BFFFF72AFEB8
:100B2000801B6428F0D828688003F7D420789A4E78
:100B300080074FF001094FF0000839D5686810F0C0
:100B40000C0F07D06868C0F38100022809D16868DB
:100B5000C00306D42868800714D52069012808D16D
:100B600010E02069B0B1C6F80090FFF703FE074619
:100B700005E00AE1FFF7FEFDC01B0228C4D8286883
:100B80008007F7D52868616920F0F80040EAC100C5
:100B900028600DE0C6F80080FFF7ECFD074604E092
:100BA000FFF7E8FDC01B022823D828688007F7D488
:100BB000207800072CD57948A169D9B1C0F80090F8
:100BC000FFF7D8FD074604E0FFF7D4FDC01B02285D
:100BD0000FD8686A8007F7D571484FF4FA5100685A
:100BE000B0FBF1F0009000BF0098411E0091FAD2D6
:100BF0000EE080E0C0F80080FFF7BCFD074604E08F
:100C0000FFF7B8FDC01B022875D8686A8007F7D4C3
:100C10002078400760D5E8690027C00008D4E8695B
:100C200040F08050E861E869012700F080500090B2
:100C30005C480168C90513D40168834641F480719A
:100C40000160FFF797FD824606E000BFFFF792FDC7
:100C5000A0EB0A0064284ED8DBF80000C005F5D5EB
:100C6000E06801280AD008B1052813D0286A20F0CE
:100C700001002862286A20F0040002E0286A40F09F
:100C800001002862E06841F2883B98B1FFF772FDED
:100C900082460BE0286A40F004002862EEE700BFBD
:100CA000FFF768FDA0EB0A0159455AD8286A80076A
:100CB000F6D50CE0FFF75EFD824605E0FFF75AFD32
:100CC000A0EB0A0159454CD8286A8007F6D41FB119
:100CD000E86920F08050E861E06988B36968C1F391
:100CE0008101022944D00228C6F8608004D0FFF7B1
:100CF00041FD044638E034E0FFF73CFD074604E0E0
:100D0000FFF738FDC01B02282BD828688001F7D4D4
:100D1000206AB0F5803F05D16868A16820F40030F2
:100D200008436860D4E908010843696821F4741134
:100D300008436860C6F86090FFF71CFD044606E0B3
:100D400025E000BFFFF716FD001B022809D8286820
:100D50008001F7D51BE000BFFFF70CFD001B022848
:100D600002D90320BDE8F88F28688001F4D40EE092
:100D70000128F7D06868226A00F48031914204D1DA
:100D8000616A00F47010884201D00120EAE7002077
:100D9000E8E70000001002400000424280044242A6
:100DA0007C0000200070004070B5040009D0606A2B
:100DB000002540B125616561A56294F8510040B1FC
:100DC0000CE0012070BD6068B0F5827FF4D0E56171
:100DD000F2E784F85050204600F040F8022084F8F2
:100DE00051002068016821F040010160A08821893C
:100DF00000F4827001F404410843A18901F4006108
:100E00000843217C01F002010843217D01F001012A
:100E10000843218B01F400710843217F01F0380160
:100E2000084394F8201001F080010843218D01F45B
:100E30000051084321680860A069042101EA1040BC
:100E4000216848602068C16921F40061C16165655D
:100E5000012084F85100002070BD000030B585B03D
:100E60000024009401940294039400681449884279
:100E700023D11448816941F480518161816901F471
:100E800080510491816941F00401816180690E4DB6
:100E900000F004000490A0200090022001900320A4
:100EA000039069462846FFF763FB4020CDE9000424
:100EB000694628460294FFF75BFB05B030BD000091
:100EC00000300140001002400008014010B5401EF3
:100ED000B0F1807F01D3012010BD4FF0E0246061AC
:100EE0000F21601700F0E0FA0020A06107202061C8
:100EF000002010BD70B5040004D094F8390000251E
:100F000010B106E0012070BD84F83850204600F092
:100F100023F8242084F839002068C16821F40051A6
:100F2000C160204600F01CFA2068016921F490415C
:100F300001612068416921F02A0141612068C1688E
:100F400041F40051C160E563202084F8390084F841
:100F50003A00002070BD000030B585B00024009438
:100F600001940294039400681449884224D11448DF
:100F7000816941F480418161816901F4804104917A
:100F8000816941F00401816180690E4D00F0040027
:100F900004904FF400700090022001900320039011
:100FA00069462846FFF7E4FA2815CDE900046946AA
:100FB00028460294FFF7DCFA05B030BD0038014046
:100FC00000100240000801402DE9F843044690F863
:100FD00039001F4616460D4620284CD1C5B1BEB17A
:100FE00094F83800012846D0012084F838004FF0EA
:100FF0000008C4F83C80212084F83900FFF7BAFBD0
:10100000A6848146E684A068B0F5805F03D004E042
:101010000120BDE8F883206928B12E465FF0000565
:1010200084F838800EE00026FAE78021204600F0A0
:10103000F3F9A0B9AEB116F8010B21684860E08C55
:10104000401EE084E08C4B464FF0000200970028E1
:10105000EBD14FF04001204600F0DEF930B1032023
:10106000D7E735F8020BC0F30800E6E7202084F844
:1010700039000020CDE70220CBE7FEE72DE9F04361
:1010800085B0002456480094019402940394816929
:1010900041F010018161816901F0100104918169C1
:1010A00041F020018161816901F020010491816991
:1010B00041F004018161816901F0040104918169B9
:1010C00041F0080181618069DFF8189100F00800A3
:1010D0000490002202214846FFF747FB0126DFF873
:1010E000088102250096694640460196CDE90245F1
:1010F000FFF73EFA0827CDE9007669464846CDE974
:101100000245FFF735FAE801CDE900066946404699
:10111000CDE90245FFF72CFA8020CDE900066946AB
:101120004046CDE90245FFF723FA2802CDE9000643
:1011300069464046CDE90245FFF71AFA4020CDE95D
:10114000000669464046CDE90245FFF711FA274EF1
:101150002020CDE90006694602944046FFF708FAD0
:101160001020CDE90006694602944046FFF700FAD8
:101170000097CDE9016469464046FFF7F9F9E802B6
:10118000CDE90006694602954046FFF7F1F9A8024D
:10119000CDE90006694602954046FFF7E9F90022CD
:1011A00011460920FFF752FB0920FFF741FB0022FF
:1011B00011460A20FFF74AFB0A20FFF739FB0022FD
:1011C00011461720FFF742FB1720FFF731FB0122E2
:1011D00008214846FFF7C9FA05B0BDE8F0830000D2
:1011E0000010024000080140000C014000001110F6
:1011F000104810B50E4901604FF482714160002122
:101200008160C1604FF400720161C0E905122822BB
:10121000C0E90721416281620A21C162FFF7C4FD72
:10122000002804D0BDE8104003A0FFF767B910BD47
:10123000003001404009002048414C5F5350495F55
:10124000496E6974282668737069312920213D2010
:1012500048414C5F4F4B00000D4810B50B490160F1
:101260004FF416514160002181600C22C160C0E939
:1012700004128161C161FFF73DFE002804D0BDE882
:10128000104004A0FFF73AB910BD0000003801403B
:101290008000002048414C5F554152545F496E69BF
:1012A0007428266875617274312920213D204841D7
:1012B0004C5F4F4B00000000FEE7704770477047DF
:1012C000FFF75EBA30B58FB028216846FEF733FFCE
:1012D00014210AA8FEF72FFF01210804CDE9001010
:1012E0000024029402250491CDE907504FF4E01048
:1012F00009906846FFF7C8FB10B10BA0FFF7FEF896
:101300000F20CDE90A054FF48060CDE90C400221A1
:101310000AA80E94FFF7CCFA002802D00E48FFF777
:10132000EDF80FB030BD000048414C5F5243435FC1
:101330004F7363436F6E66696728265243435F4F5E
:101340007363496E69745374727563742920213D07
:101350002048414C5F4F4B00301900087047000097
:1013600070B5044600680169E26821F440511143F8
:1013700001612169A0680843616908432168CA685E
:1013800041F20C639A430243CA6020684169A26932
:1013900021F44071114341611E492068884202D105
:1013A000FFF72CFB01E0FFF719FB00EBC00101EB9D
:1013B0000012606864218000B2FBF0F3B3FBF1F32C
:1013C0006FF018067343B2FBF0F5B2FBF0F605EBD5
:1013D0008305322303EB0515B5FBF1F5B6FBF1F6FA
:1013E00005F0F00505EB0615B2FBF0F6B2FBF0F0E8
:1013F000B0FBF1F06FF01802504306EB800003EBF6
:101400000010B0FBF1F0216800F00F002844886064
:1014100070BD0000003801402DE9F04198461746A4
:101420000E460446069D1DE0681C1BD02DB1FFF73B
:10143000A1F9A0EB0800A84214D92068C16821F4E2
:10144000D071C1602068416921F001014161202013
:1014500084F8390084F83A00002084F8380003202A
:10146000BDE8F0812068006836EA000004D0002062
:10147000B842D9D00020F3E70120F9E7FEE70000E9
:101480000FB4084B10B504A902AA039800F02CF879
:10149000044602A9002000F0D1F8204610BC5DF8F7
:1014A00014FB00003D1600080907090E002804DBA4
:1014B00000F1E02080F80014704700F00F0000F108
:1014C000E02080F8141D704702E008C8121F08C110
:1014D000002AFAD170477047002001E001C1121FB5
:1014E000002AFBD1704700002DE9FF4F89B09B46D1
:1014F0000446002506E025280BD05A460B99904754
:10150000641C6D1C20780028F5D10DB02846BDE87C
:10151000F08F0027B8460122474900E0074314F83E
:10152000013F203B02FA03F00842F7D120782E2831
:1015300019D114F8010F47F004072A280ED06FF0D4
:101540002F022078A0F1300109290CD808EB88017E
:1015500002EB410100EB0108641CF2E70A98641CED
:1015600050F8048B0A9020780028CED0642808D048
:10157000692806D075281ED05A460B9990476D1CD5
:1015800058E00A994FF00A0901C90A91002802DAC5
:1015900040422D2102E0390504D52B218DF8201081
:1015A000012103E0F90704D02021F7E78A4608AEBD
:1015B0000DE00021FAE70A994FF00A0901C90A91E2
:1015C000F7E74946FEF7C9FD303106F8011D00284E
:1015D000F7D1ADEB060000F12009780701D44FF0F8
:1015E0000108C84502DDA8EB090000E000208046A4
:1015F000002706E008A85A46C05D0B9990476D1C6D
:101600007F1C5745F6DB04E030205A460B99904783
:101610006D1CB8F10001A8F10108F5DC05E016F831
:10162000010B5A460B9990476D1CB9F10001A9F1C5
:101630000109F4DC641C65E7092801000A68531CF1
:101640000B60107070470000FEB50C4D00244FF485
:10165000806600BFFEF720FE58B102AA01A96846C5
:10166000FEF78CFEBDF8000025F814000520FEF7FB
:101670005FFF641CB442EDDBFEBD000040010020B2
:10168000FFF786F8FFF71EFEFFF7F8FCFFF7B0FD47
:10169000FFF7E2FD4DA000F01FF9FEF787FD50A017
:1016A00000F01AF9FEF720FE00212D20FEF7DCFEE7
:1016B00010212D20FEF7D8FE4BA000F00DF90122DD
:1016C0004B4E150229463046FFF74FF80122802184
:1016D0003046FFF74AF80122570239463046FFF7F5
:1016E00044F8012240213046FFF73FF84FF47A7466
:1016F0002046FEF71DFF002229463046FFF735F849
:10170000002280213046FFF730F80022394630466B
:10171000FFF72BF8002240213046FFF726F8354D21
:1017200035A13A482A69FFF7ABFE3848FEF70EFDAF
:10173000364982B22346A1F14000FFF745FC34A1AF
:101740003248EA68FFF79CFE3048FEF7FFFC2F495D
:1017500082B22346A1F14000FFF736FCFEF7D4FD2C
:1017600018B130A0FEF7CAFEDAE738A12748FFF724
:1017700087FE2648FEF7EAFC244982B22346A1F1FF
:101780004000FFF721FCFFF75FFF35A11F48FFF77F
:1017900077FE1E48FEF7DAFC1C4982B22346A1F10F
:1017A0004000FFF711FC33A000F096F836A000F0DF
:1017B00093F816484FF48061803000F067F807A076
:1017C00000F08AF82046FEF7B3FEA9E755415254CF
:1017D00020696E697469616C697A65640000000053
:1017E000686572653100000068657265320000004E
:1017F000000C0140000000206972713120636F7598
:101800006E7465722025640D0A000000C00000207F
:101810006972713220636F756E7465722025640D74
:101820000A000000436F6D6D756E69636174696FC6
:101830006E207769746820616363656C65726F6D93
:1018400065746572206661696C65640047657474CF
:10185000696E672073616D706C65730D0A0000001E
:101860004D6561737572696E6720646F6E650D0AF0
:10187000000000005072696E74696E672073616DBC
:10188000706C657300000000783A20002DE9F0418B
:101890000D46064600244FF47A7710E036F91420FE
:1018A0000AA10C48FFF7ECFD0A48FEF74FFC094976
:1018B00082B23B46A1F14000FFF786FB641CAC42BC
:1018C000ECDBBDE8F04102A000F006B825642C2056
:1018D00000000000C000002010B5044601460C487E
:1018E000FFF7CEFD2046FEF731FC0949084409A167
:1018F000FFF7C6FD0648FEF729FC054982B2BDE8A0
:1019000010404FF47A73A1F14000FFF75DBB000077
:10191000C00000200D0A00000000000000000000D0
:101920000102030406070809000000000102030485
:1019300048414C5F5243435F436C6F636B436F6E30
:1019400066696728265243435F436C6B496E69742E
:101950005374727563742C20464C4153485F4C415C
:1019600054454E43595F322920213D2048414C5F68
:101970004F4B000094190008000000208000000078
:10198000C8140008141A000880000020580D000038
:10199000D814000800000000000000000000000053
:1019A0000000000000000000000000000000000037
:1019B0000000000001010000000000000000003FE6
:1019C0000000000000000000000000000000000017
:1019D0000000000000000000000000000000000007
:1019E00000000000000000000000000000000000F7
:1019F00000000000000000000000000000000000E7
:101A000000000000010000001000000000000000C5
:041A10000024F400BA
:04000005080000ED02
:00000001FF
